{
    "contractName": "OpenSource",
    "abi": [
        {
            "inputs": [],
            "stateMutability": "nonpayable",
            "type": "constructor"
        },
        {
            "inputs": [
                {
                    "internalType": "string",
                    "name": "token_name",
                    "type": "string"
                },
                {
                    "internalType": "string",
                    "name": "owner",
                    "type": "string"
                },
                {
                    "internalType": "uint256",
                    "name": "total_supply",
                    "type": "uint256"
                },
                {
                    "internalType": "string[]",
                    "name": "username",
                    "type": "string[]"
                },
                {
                    "internalType": "uint256[]",
                    "name": "balance",
                    "type": "uint256[]"
                }
            ],
            "name": "createRepo",
            "outputs": [
                {
                    "internalType": "int256",
                    "name": "",
                    "type": "int256"
                }
            ],
            "stateMutability": "nonpayable",
            "type": "function"
        },
        {
            "inputs": [
                {
                    "internalType": "string",
                    "name": "username",
                    "type": "string"
                }
            ],
            "name": "selectUserAllBalance",
            "outputs": [
                {
                    "internalType": "string[]",
                    "name": "",
                    "type": "string[]"
                },
                {
                    "internalType": "string[]",
                    "name": "",
                    "type": "string[]"
                },
                {
                    "internalType": "int256[]",
                    "name": "",
                    "type": "int256[]"
                }
            ],
            "stateMutability": "view",
            "type": "function"
        }
    ],
    "bytecode": "60806040523480156200001157600080fd5b50600080546001600160a01b03191661100117908190556040805180820182526004808252637265706f60e01b60208301529151632b0025b560e11b81526001600160a01b0393909316926356004b6a926200006f9291016200023b565b602060405180830381600087803b1580156200008a57600080fd5b505af11580156200009f573d6000803e3d6000fd5b505050506040513d601f19601f82011682018060405250810190620000c591906200016c565b506000546040805180820182526004808252633ab9b2b960e11b60208301529151632b0025b560e11b81526001600160a01b03909316926356004b6a926200010f929101620001d3565b602060405180830381600087803b1580156200012a57600080fd5b505af11580156200013f573d6000803e3d6000fd5b505050506040513d601f19601f820116820180604052508101906200016591906200016c565b50620002a9565b6000602082840312156200017e578081fd5b5051919050565b60008151808452815b81811015620001ac576020818501810151868301820152016200018e565b81811115620001be5782602083870101525b50601f01601f19169290920160200192915050565b600060608252620001e8606083018462000185565b82810380602085015260048252633ab9b2b960e11b6020830152604081016040850152506012604082015271746f6b656e5f6e616d652c62616c616e636560701b60608201526080810191505092915050565b60006060825262000250606083018462000185565b828103806020850152600a825269746f6b656e5f6e616d6560b01b60208301526040810160408501525060126040820152716f776e65722c746f74616c5f737570706c7960701b60608201526080810191505092915050565b6114a980620002b96000396000f3fe608060405234801561001057600080fd5b50600436106100365760003560e01c806383e9c79f1461003b578063c50573fa14610064575b600080fd5b61004e610049366004611084565b610086565b60405161005b9190611284565b60405180910390f35b610077610072366004610fdf565b610748565b60405161005b9392919061121c565b600061009186610cc4565b1515600114156100a557506103e81961073f565b6000805b83518110156100d5578381815181106100be57fe5b6020026020010151820191508060010190506100a9565b818610156100ea576103e9199250505061073f565b600080546040805180820182526004808252637265706f60e01b6020830152915163f23f63c960e01b81526001600160a01b039093169263f23f63c99261013292910161128d565b60206040518083038186803b15801561014a57600080fd5b505afa15801561015e573d6000803e3d6000fd5b505050506040513d601f19601f820116820180604052508101906101829190610fa4565b600080546040805180820182526004808252633ab9b2b960e11b6020830152915163f23f63c960e01b815294955092936001600160a01b039092169263f23f63c9926101ce920161128d565b60206040518083038186803b1580156101e657600080fd5b505afa1580156101fa573d6000803e3d6000fd5b505050506040513d601f19601f8201168201806040525081019061021e9190610fa4565b90506000826001600160a01b03166313db93466040518163ffffffff1660e01b815260040160206040518083038186803b15801561025b57600080fd5b505afa15801561026f573d6000803e3d6000fd5b505050506040513d601f19601f820116820180604052508101906102939190610fa4565b6040516374a15a8b60e11b81529091506001600160a01b0382169063e942b516906102c2908e90600401611363565b600060405180830381600087803b1580156102dc57600080fd5b505af11580156102f0573d6000803e3d6000fd5b50506040516374a15a8b60e11b81526001600160a01b038416925063e942b5169150610320908d906004016112ca565b600060405180830381600087803b15801561033a57600080fd5b505af115801561034e573d6000803e3d6000fd5b5050604051638a42ebe960e01b81526001600160a01b0384169250638a42ebe9915061037e908c906004016112f9565b600060405180830381600087803b15801561039857600080fd5b505af11580156103ac573d6000803e3d6000fd5b50506040516318d7d61b60e11b8152600092506001600160a01b03861691506331afac36906103e1908f9086906004016112a0565b602060405180830381600087803b1580156103fb57600080fd5b505af115801561040f573d6000803e3d6000fd5b505050506040513d601f19601f820116820180604052508101906104339190610fc7565b90508060011461044a57955061073f945050505050565b6000836001600160a01b03166313db93466040518163ffffffff1660e01b815260040160206040518083038186803b15801561048557600080fd5b505afa158015610499573d6000803e3d6000fd5b505050506040513d601f19601f820116820180604052508101906104bd9190610fa4565b9050600095505b885186101561073657836001600160a01b03166313db93466040518163ffffffff1660e01b815260040160206040518083038186803b15801561050657600080fd5b505afa15801561051a573d6000803e3d6000fd5b505050506040513d601f19601f8201168201806040525081019061053e9190610fa4565b9050826001600160a01b031663e942b5168b888151811061055b57fe5b60200260200101516040518263ffffffff1660e01b815260040161057f919061133f565b600060405180830381600087803b15801561059957600080fd5b505af11580156105ad573d6000803e3d6000fd5b50505050826001600160a01b031663e942b5168e6040518263ffffffff1660e01b81526004016105dd9190611363565b600060405180830381600087803b1580156105f757600080fd5b505af115801561060b573d6000803e3d6000fd5b50505050826001600160a01b0316638a42ebe98a888151811061062a57fe5b60200260200101516040518263ffffffff1660e01b815260040161064e9190611397565b600060405180830381600087803b15801561066857600080fd5b505af115801561067c573d6000803e3d6000fd5b50505050836001600160a01b03166331afac368b888151811061069b57fe5b6020026020010151836040518363ffffffff1660e01b81526004016106c19291906112a0565b602060405180830381600087803b1580156106db57600080fd5b505af11580156106ef573d6000803e3d6000fd5b505050506040513d601f19601f820116820180604052508101906107139190610fc7565b91508160011461072b5750955061073f945050505050565b8560010195506104c4565b50955050505050505b95945050505050565b600080546040805180820182526004808252633ab9b2b960e11b6020830152915163f23f63c960e01b81526060948594859491936001600160a01b039091169263f23f63c99261079992910161128d565b60206040518083038186803b1580156107b157600080fd5b505afa1580156107c5573d6000803e3d6000fd5b505050506040513d601f19601f820116820180604052508101906107e99190610fa4565b90506000816001600160a01b0316637857d7c96040518163ffffffff1660e01b815260040160206040518083038186803b15801561082657600080fd5b505afa15801561083a573d6000803e3d6000fd5b505050506040513d601f19601f8201168201806040525081019061085e9190610fa4565b90506000826001600160a01b031663e8434e3988846040518363ffffffff1660e01b81526004016108909291906112a0565b60206040518083038186803b1580156108a857600080fd5b505afa1580156108bc573d6000803e3d6000fd5b505050506040513d601f19601f820116820180604052508101906108e09190610fa4565b90506060816001600160a01b031663949d225d6040518163ffffffff1660e01b815260040160206040518083038186803b15801561091d57600080fd5b505afa158015610931573d6000803e3d6000fd5b505050506040513d601f19601f820116820180604052508101906109559190610fc7565b67ffffffffffffffff8111801561096b57600080fd5b5060405190808252806020026020018201604052801561099f57816020015b606081526020019060019003908161098a5790505b5090506060826001600160a01b031663949d225d6040518163ffffffff1660e01b815260040160206040518083038186803b1580156109dd57600080fd5b505afa1580156109f1573d6000803e3d6000fd5b505050506040513d601f19601f82011682018060405250810190610a159190610fc7565b67ffffffffffffffff81118015610a2b57600080fd5b50604051908082528060200260200182016040528015610a5f57816020015b6060815260200190600190039081610a4a5790505b5090506060836001600160a01b031663949d225d6040518163ffffffff1660e01b815260040160206040518083038186803b158015610a9d57600080fd5b505afa158015610ab1573d6000803e3d6000fd5b505050506040513d601f19601f82011682018060405250810190610ad59190610fc7565b67ffffffffffffffff81118015610aeb57600080fd5b50604051908082528060200260200182016040528015610b15578160200160208202803683370190505b50905060005b846001600160a01b031663949d225d6040518163ffffffff1660e01b815260040160206040518083038186803b158015610b5457600080fd5b505afa158015610b68573d6000803e3d6000fd5b505050506040513d601f19601f82011682018060405250810190610b8c9190610fc7565b811215610cb35760405163042338cf60e51b81526000906001600160a01b0387169063846719e090610bc2908590600401611284565b60206040518083038186803b158015610bda57600080fd5b505afa158015610bee573d6000803e3d6000fd5b505050506040513d601f19601f82011682018060405250810190610c129190610fa4565b604051639c981fcb60e01b81529091506001600160a01b03821690639c981fcb90610c3f90600401611327565b60006040518083038186803b158015610c5757600080fd5b505afa158015610c6b573d6000803e3d6000fd5b505050506040513d6000823e601f3d908101601f19168201604052610c93919081019061101a565b858381518110610c9f57fe5b602090810291909101015250600101610b1b565b509199909850909650945050505050565b600080546040805180820182526004808252637265706f60e01b6020830152915163f23f63c960e01b815284936001600160a01b03169263f23f63c992610d0d9290910161128d565b60206040518083038186803b158015610d2557600080fd5b505afa158015610d39573d6000803e3d6000fd5b505050506040513d601f19601f82011682018060405250810190610d5d9190610fa4565b90506000816001600160a01b0316637857d7c96040518163ffffffff1660e01b815260040160206040518083038186803b158015610d9a57600080fd5b505afa158015610dae573d6000803e3d6000fd5b505050506040513d601f19601f82011682018060405250810190610dd29190610fa4565b90506000826001600160a01b031663e8434e3986846040518363ffffffff1660e01b8152600401610e049291906112a0565b60206040518083038186803b158015610e1c57600080fd5b505afa158015610e30573d6000803e3d6000fd5b505050506040513d601f19601f82011682018060405250810190610e549190610fa4565b90506000816001600160a01b031663949d225d6040518163ffffffff1660e01b815260040160206040518083038186803b158015610e9157600080fd5b505afa158015610ea5573d6000803e3d6000fd5b505050506040513d601f19601f82011682018060405250810190610ec99190610fc7565b1315610edb5760019350505050610ee3565b600093505050505b919050565b600082601f830112610ef8578081fd5b8135610f0b610f06826113e7565b6113c0565b818152915060208083019084810181840286018201871015610f2c57600080fd5b60005b84811015610f4b57813584529282019290820190600101610f2f565b505050505092915050565b600082601f830112610f66578081fd5b8135610f74610f0682611407565b9150808252836020828501011115610f8b57600080fd5b8060208401602084013760009082016020015292915050565b600060208284031215610fb5578081fd5b8151610fc08161145b565b9392505050565b600060208284031215610fd8578081fd5b5051919050565b600060208284031215610ff0578081fd5b813567ffffffffffffffff811115611006578182fd5b61101284828501610f56565b949350505050565b60006020828403121561102b578081fd5b815167ffffffffffffffff811115611041578182fd5b8201601f81018413611051578182fd5b805161105f610f0682611407565b818152856020838501011115611073578384fd5b61073f82602083016020860161142b565b600080600080600060a0868803121561109b578081fd5b853567ffffffffffffffff808211156110b2578283fd5b6110be89838a01610f56565b96506020915081880135818111156110d4578384fd5b6110e08a828b01610f56565b965050604088013594506060880135818111156110fb578384fd5b8801601f81018a1361110b578384fd5b8035611119610f06826113e7565b81815284810190838601875b8481101561114e5761113c8f898435890101610f56565b84529287019290870190600101611125565b50909750505050608089013592505080821115611169578283fd5b5061117688828901610ee8565b9150509295509295909350565b60008282518085526020808601955080818302840101818601855b848110156111cc57601f198684030189526111ba8383516111d9565b9884019892509083019060010161119e565b5090979650505050505050565b600081518084526111f181602086016020860161142b565b601f01601f19169290920160200192915050565b60048152633ab9b2b960e11b602082015260400190565b60006060825261122f6060830186611183565b6020838203818501526112428287611183565b84810360408601528551808252828701935090820190845b818110156112765784518352938301939183019160010161125a565b509098975050505050505050565b90815260200190565b600060208252610fc060208301846111d9565b6000604082526112b360408301856111d9565b905060018060a01b03831660208301529392505050565b600060408252600560408301526437bbb732b960d91b606083015260806020830152610fc060808301846111d9565b6040808252600c908201526b746f74616c5f737570706c7960a01b6060820152602081019190915260800190565b60006020825261133960208301611205565b92915050565b60006040825261135160408301611205565b828103602084015261101281856111d9565b600060408252600a604083015269746f6b656e5f6e616d6560b01b606083015260806020830152610fc060808301846111d9565b60408082526007908201526662616c616e636560c81b6060820152602081019190915260800190565b60405181810167ffffffffffffffff811182821017156113df57600080fd5b604052919050565b600067ffffffffffffffff8211156113fd578081fd5b5060209081020190565b600067ffffffffffffffff82111561141d578081fd5b50601f01601f191660200190565b60005b8381101561144657818101518382015260200161142e565b83811115611455576000848401525b50505050565b6001600160a01b038116811461147057600080fd5b5056fea26469706673582212206ab1ab7b0e2afbdbd1c9763b901257df3bd01935b3e2bb8c1a4b305eae0c245c64736f6c63430007000033",
    "sourcePath": "/home/qiubing/桌面/trustie-fisco-bcos/contract/opensource/opensource.sol",
    "compiler": {
        "name": "solc",
        "version": "0.7.0+commit.9e61f92b"
    },
    "functionHashes": {
        "createRepo(string,string,uint256,string[],uint256[])": "83e9c79f",
        "selectUserAllBalance(string)": "c50573fa"
    },
    "gasEstimates": {
        "creation": {
            "codeDepositCost": "1057800",
            "executionCost": "infinite",
            "totalCost": "infinite"
        },
        "external": {
            "createRepo(string,string,uint256,string[],uint256[])": "infinite",
            "selectUserAllBalance(string)": "infinite"
        },
        "internal": {
            "judgeReposExisted(string memory)": "infinite"
        }
    }
}